:080BEB008FA0D2B17F057E004E
:100BF300E4FDFCC3ED9FEE6480F8EC64809850152F
:100C0300E4FBFA0BBB00010ABA01F8BBF4F50DBD16
:050C130000010C80DE71
:010C180022B9
:080C8900C2B0120BEBC2B12254
:080C9100D2B0120BEBC2B1223C
:100C45008B0E8A0F8910AB0EAA0FA9101208F66039
:100C5500130510E5107002050F14F91208F6FF12BE
:050C65000C9180E22269
:100C6A007F38120C897F0E120C897F06120C897F3D
:040C7A0001020C89DE
:100C1900416363657373204772616E746564004153
:100C290063636573732044656E69656400456E741A
:0C0C390065722050494E3A0031323334CD
:040C99000211000044
:100B450078087C007D007BFF7A0C79417E007F046C
:100B55001208D0750C00750D01E4FFFE74082FF81E
:100B6500E6FD74132FF8E66D6007E4F50CF50D80CE
:100B75000B0FBF00010EEF64044E70E07F01120CF5
:100B850089E50D450C7BFF60067A0C791980047A9E
:100B95000C7928120C457FD07E07120BF37F0112CA
:100BA5000C897BFF7A0C7936120C45E4F511F512A8
:010BB500221D
:10090F00D296D295D294D293C292C291C290209392
:10091F001A7F31120C910512E51270020511142481
:10092F0013F876317FC87E00120BF320941A7F34B0
:10093F00120C910512E51270020511142413F876AA
:10094F00347FC87E00120BF320951A7F37120C915B
:10095F000512E51270020511142413F876377FC8BB
:10096F007E00120BF320961A7F2A120C910512E5C6
:10097F001270020511142413F8762A7FC87E001214
:0E098F000BF3E512640445117003120B4522B0
:10099D00D296D295D294D293C292C291C290209304
:1009AD001A7F32120C910512E512700205111424F2
:1009BD0013F876327FC87E00120BF320941A7F3520
:1009CD00120C910512E51270020511142413F8761C
:1009DD00357FC87E00120BF320951A7F38120C91CB
:1009ED000512E51270020511142413F876387FC82C
:1009FD007E00120BF320961A7F30120C910512E532
:100A0D001270020511142413F876307FC87E00127F
:0E0A1D000BF3E512640445117003120B452221
:100A2B00D296D295D294D293C292C291C290209375
:100A3B001A7F33120C910512E51270020511142462
:100A4B0013F876337FC87E00120BF320941A7F368F
:100A5B00120C910512E51270020511142413F8768D
:100A6B00367FC87E00120BF320951A7F39120C913A
:100A7B000512E51270020511142413F876397FC89C
:100A8B007E00120BF320961A7F23120C910512E5B0
:100A9B001270020511142413F876237FC87E0012FE
:0E0AAB000BF3E512640445117003120B452293
:0B0C7E00456E7465722050494E3A002C
:100BB600120C6A7BFF7A0C797E120C457F1E7E0032
:100BC600120BF3D292D291D290C296C295C294C21F
:100BD6009320900312090F20910312099D2092DCA5
:050BE600120A2B80D76C
:03000000020AB938
:0C0AB900787FE4F6D8FD758116020B0072
:10080000E709F608DFFA8046E709F208DFFA803EDA
:1008100088828C83E709F0A3DFFA8032E309F608C7
:10082000DFFA8078E309F208DFFA807088828C832F
:10083000E309F0A3DFFA806489828A83E0A3F608E3
:10084000DFFA805889828A83E0A3F208DFFA804CBD
:1008500080D280FA80C680D4806980F28033801094
:1008600080A680EA809A80A880DA80E280CA8033FD
:1008700089828A83ECFAE493A3C8C582C8CCC58375
:10088000CCF0A3C8C582C8CCC583CCDFE9DEE78045
:100890000D89828A83E493A3F608DFF9ECFAA9F0C4
:1008A000EDFB2289828A83ECFAE0A3C8C582C8CC1A
:1008B000C583CCF0A3C8C582C8CCC583CCDFEADE33
:1008C000E880DB89828A83E493A3F208DFF980CC95
:1008D00088F0EF60010E4E60C388F0ED2402B4048E
:1008E0000050B9F582EB2402B4040050AF23234535
:0608F00082239008507302
:1008F600BB010689828A83E0225002E722BBFE0200
:09090600E32289828A83E4932232
:100AC500020BB6E493A3F8E493A34003F68001F286
:100AD50008DFF48029E493A3F85407240CC8C33332
:100AE500C4540F4420C8834004F456800146F6DF01
:100AF500E4800B0102040810204080900C99E47EEC
:100B0500019360BCA3FF543F30E509541FFEE493F5
:100B1500A360010ECF54C025E060A840B8E493A3BC
:100B2500FAE493A3F8E493A3C8C582C8CAC583CAE7
:100B3500F0A3C8C582C8CAC583CADFE9DEE780BE9F
:010C9D000056
:00000001FF
